{
  "contractName": "KryptoBird",
  "abi": [
    {
      "inputs": [],
      "stateMutability": "nonpayable",
      "type": "constructor"
    },
    {
      "anonymous": false,
      "inputs": [
        {
          "indexed": true,
          "internalType": "address",
          "name": "_owner",
          "type": "address"
        },
        {
          "indexed": true,
          "internalType": "address",
          "name": "_approved",
          "type": "address"
        },
        {
          "indexed": true,
          "internalType": "uint256",
          "name": "_tokenId",
          "type": "uint256"
        }
      ],
      "name": "Approval",
      "type": "event"
    },
    {
      "anonymous": false,
      "inputs": [
        {
          "indexed": true,
          "internalType": "address",
          "name": "_from",
          "type": "address"
        },
        {
          "indexed": true,
          "internalType": "address",
          "name": "_to",
          "type": "address"
        },
        {
          "indexed": true,
          "internalType": "uint256",
          "name": "_tokenId",
          "type": "uint256"
        }
      ],
      "name": "Transfer",
      "type": "event"
    },
    {
      "inputs": [
        {
          "internalType": "address",
          "name": "_to",
          "type": "address"
        },
        {
          "internalType": "uint256",
          "name": "tokenId",
          "type": "uint256"
        }
      ],
      "name": "approve",
      "outputs": [],
      "stateMutability": "nonpayable",
      "type": "function"
    },
    {
      "inputs": [
        {
          "internalType": "address",
          "name": "_owner",
          "type": "address"
        }
      ],
      "name": "balanceOf",
      "outputs": [
        {
          "internalType": "uint256",
          "name": "",
          "type": "uint256"
        }
      ],
      "stateMutability": "view",
      "type": "function",
      "constant": true
    },
    {
      "inputs": [
        {
          "internalType": "uint256",
          "name": "",
          "type": "uint256"
        }
      ],
      "name": "kryptoBirdz",
      "outputs": [
        {
          "internalType": "string",
          "name": "",
          "type": "string"
        }
      ],
      "stateMutability": "view",
      "type": "function",
      "constant": true
    },
    {
      "inputs": [],
      "name": "name",
      "outputs": [
        {
          "internalType": "string",
          "name": "",
          "type": "string"
        }
      ],
      "stateMutability": "view",
      "type": "function",
      "constant": true
    },
    {
      "inputs": [
        {
          "internalType": "uint256",
          "name": "_tokenId",
          "type": "uint256"
        }
      ],
      "name": "ownerOf",
      "outputs": [
        {
          "internalType": "address",
          "name": "",
          "type": "address"
        }
      ],
      "stateMutability": "view",
      "type": "function",
      "constant": true
    },
    {
      "inputs": [
        {
          "internalType": "bytes4",
          "name": "interfaceID",
          "type": "bytes4"
        }
      ],
      "name": "supportsInterface",
      "outputs": [
        {
          "internalType": "bool",
          "name": "",
          "type": "bool"
        }
      ],
      "stateMutability": "view",
      "type": "function",
      "constant": true
    },
    {
      "inputs": [],
      "name": "symbol",
      "outputs": [
        {
          "internalType": "string",
          "name": "",
          "type": "string"
        }
      ],
      "stateMutability": "view",
      "type": "function",
      "constant": true
    },
    {
      "inputs": [
        {
          "internalType": "uint256",
          "name": "index",
          "type": "uint256"
        }
      ],
      "name": "tokenByIndex",
      "outputs": [
        {
          "internalType": "uint256",
          "name": "",
          "type": "uint256"
        }
      ],
      "stateMutability": "view",
      "type": "function",
      "constant": true
    },
    {
      "inputs": [
        {
          "internalType": "address",
          "name": "owner",
          "type": "address"
        },
        {
          "internalType": "uint256",
          "name": "index",
          "type": "uint256"
        }
      ],
      "name": "tokenOfOwnerByIndex",
      "outputs": [
        {
          "internalType": "uint256",
          "name": "",
          "type": "uint256"
        }
      ],
      "stateMutability": "view",
      "type": "function",
      "constant": true
    },
    {
      "inputs": [],
      "name": "totalSupply",
      "outputs": [
        {
          "internalType": "uint256",
          "name": "",
          "type": "uint256"
        }
      ],
      "stateMutability": "view",
      "type": "function",
      "constant": true
    },
    {
      "inputs": [
        {
          "internalType": "address",
          "name": "_from",
          "type": "address"
        },
        {
          "internalType": "address",
          "name": "_to",
          "type": "address"
        },
        {
          "internalType": "uint256",
          "name": "_tokenId",
          "type": "uint256"
        }
      ],
      "name": "transferFrom",
      "outputs": [],
      "stateMutability": "nonpayable",
      "type": "function"
    },
    {
      "inputs": [
        {
          "internalType": "string",
          "name": "_kryptoBird",
          "type": "string"
        }
      ],
      "name": "mint",
      "outputs": [],
      "stateMutability": "nonpayable",
      "type": "function"
    }
  ],
  "bytecode": "0x60806040523480156200001157600080fd5b506040518060400160405280600a81526020017f4b727970746f42697264000000000000000000000000000000000000000000008152506040518060400160405280600681526020017f4b424952445a00000000000000000000000000000000000000000000000000008152508181620000b17f01ffc9a7a5cef8baa21ed3c5c0d7e23accb804b619e9333b597f47a0d84076e26200022a60201b60201c565b620001267f22c82707ba960a14c7592ffb6b8cfaa073fed0048a84cc7fa41f6b5bd8e7f2e47f3a6eb71757dfc6e784c1459d26270140c2c147d95ca985c80026fc5301c3eca17f8a7e378434598edc36d108689a030cbc9d7d465de4f74c71bae1028eed6a881b18186200022a60201b60201c565b6200019b7f8230223f691b981717299fae9549350a0d894555723531f02108b1f522c1a7977f6da5e1284143cdd2d15038a59bde3be031250f00291d64494c12d967b3a4e0c37fc53637662700e6c65104059db8bba34439e0c32483ab7c34e3ccae52c739549518186200022a60201b60201c565b620001ee7f13b182f4c0e5b2efbac0efe6cf6d756c8b89f4b79c5707a043ed9ea740574ee97f7feaf19471f34a12a7eaf32d5f3090aa2260ea8624dc8a138e74e0bf0f623076186200022a60201b60201c565b81600890805190602001906200020692919062000301565b5080600990805190602001906200021f92919062000301565b505050505062000498565b63ffffffff60e01b817bffffffffffffffffffffffffffffffffffffffffffffffffffffffff19160362000295576040517f08c379a00000000000000000000000000000000000000000000000000000000081526004016200028c9062000412565b60405180910390fd5b6001600080837bffffffffffffffffffffffffffffffffffffffffffffffffffffffff19167bffffffffffffffffffffffffffffffffffffffffffffffffffffffff1916815260200190815260200160002060006101000a81548160ff02191690831515021790555050565b8280546200030f9062000463565b90600052602060002090601f0160209004810192826200033357600085556200037f565b82601f106200034e57805160ff19168380011785556200037f565b828001600101855582156200037f579182015b828111156200037e57825182559160200191906001019062000361565b5b5090506200038e919062000392565b5090565b5b80821115620003ad57600081600090555060010162000393565b5090565b600082825260208201905092915050565b7f496e76616c696420696e74657266616365207265717565737400000000000000600082015250565b6000620003fa601983620003b1565b91506200040782620003c2565b602082019050919050565b600060208201905081810360008301526200042d81620003eb565b9050919050565b7f4e487b7100000000000000000000000000000000000000000000000000000000600052602260045260246000fd5b600060028204905060018216806200047c57607f821691505b60208210810362000492576200049162000434565b5b50919050565b611cd780620004a86000396000f3fe608060405234801561001057600080fd5b50600436106100b45760003560e01c80634f6ccce7116100715780634f6ccce71461018d5780636352211e146101bd57806370a08231146101ed57806393ab6e561461021d57806395d89b411461024d578063d85d3d271461026b576100b4565b806301ffc9a7146100b957806306fdde03146100e9578063095ea7b31461010757806318160ddd1461012357806323b872dd146101415780632f745c591461015d575b600080fd5b6100d360048036038101906100ce9190611159565b610287565b6040516100e091906111a1565b60405180910390f35b6100f16102ee565b6040516100fe9190611255565b60405180910390f35b610121600480360381019061011c919061130b565b610380565b005b61012b61051b565b604051610138919061135a565b60405180910390f35b61015b60048036038101906101569190611375565b610528565b005b6101776004803603810190610172919061130b565b61054b565b604051610184919061135a565b60405180910390f35b6101a760048036038101906101a291906113c8565b6105fb565b6040516101b4919061135a565b60405180910390f35b6101d760048036038101906101d291906113c8565b61066c565b6040516101e49190611404565b60405180910390f35b6102076004803603810190610202919061141f565b61071d565b604051610214919061135a565b60405180910390f35b610237600480360381019061023291906113c8565b6107d4565b6040516102449190611255565b60405180910390f35b610255610880565b6040516102629190611255565b60405180910390f35b61028560048036038101906102809190611581565b610912565b005b6000806000837bffffffffffffffffffffffffffffffffffffffffffffffffffffffff19167bffffffffffffffffffffffffffffffffffffffffffffffffffffffff1916815260200190815260200160002060009054906101000a900460ff169050919050565b6060600880546102fd906115f9565b80601f0160208091040260200160405190810160405280929190818152602001828054610329906115f9565b80156103765780601f1061034b57610100808354040283529160200191610376565b820191906000526020600020905b81548152906001019060200180831161035957829003601f168201915b5050505050905090565b600061038b8261066c565b90508073ffffffffffffffffffffffffffffffffffffffff168373ffffffffffffffffffffffffffffffffffffffff16036103fb576040517f08c379a00000000000000000000000000000000000000000000000000000000081526004016103f29061169c565b60405180910390fd5b8073ffffffffffffffffffffffffffffffffffffffff163373ffffffffffffffffffffffffffffffffffffffff1614610469576040517f08c379a000000000000000000000000000000000000000000000000000000000815260040161046090611708565b60405180910390fd5b826003600084815260200190815260200160002060006101000a81548173ffffffffffffffffffffffffffffffffffffffff021916908373ffffffffffffffffffffffffffffffffffffffff160217905550818373ffffffffffffffffffffffffffffffffffffffff168273ffffffffffffffffffffffffffffffffffffffff167f8c5be1e5ebec7d5bd14f71427d1e84f3dd0314c0f7b2291e5b200ac8c7c3b92560405160405180910390a4505050565b6000600480549050905090565b6105323382610a15565b61053b57600080fd5b610546838383610aa4565b505050565b60006105568361071d565b8210610597576040517f08c379a000000000000000000000000000000000000000000000000000000000815260040161058e90611774565b60405180910390fd5b600660008473ffffffffffffffffffffffffffffffffffffffff1673ffffffffffffffffffffffffffffffffffffffff16815260200190815260200160002082815481106105e8576105e7611794565b5b9060005260206000200154905092915050565b600061060561051b565b8210610646576040517f08c379a000000000000000000000000000000000000000000000000000000000815260040161063d9061180f565b60405180910390fd5b6004828154811061065a57610659611794565b5b90600052602060002001549050919050565b6000806001600084815260200190815260200160002060009054906101000a900473ffffffffffffffffffffffffffffffffffffffff169050600073ffffffffffffffffffffffffffffffffffffffff168173ffffffffffffffffffffffffffffffffffffffff1603610714576040517f08c379a000000000000000000000000000000000000000000000000000000000815260040161070b906118a1565b60405180910390fd5b80915050919050565b60008073ffffffffffffffffffffffffffffffffffffffff168273ffffffffffffffffffffffffffffffffffffffff160361078d576040517f08c379a0000000000000000000000000000000000000000000000000000000008152600401610784906118a1565b60405180910390fd5b600260008373ffffffffffffffffffffffffffffffffffffffff1673ffffffffffffffffffffffffffffffffffffffff168152602001908152602001600020549050919050565b600a81815481106107e457600080fd5b9060005260206000200160009150905080546107ff906115f9565b80601f016020809104026020016040519081016040528092919081815260200182805461082b906115f9565b80156108785780601f1061084d57610100808354040283529160200191610878565b820191906000526020600020905b81548152906001019060200180831161085b57829003601f168201915b505050505081565b60606009805461088f906115f9565b80601f01602080910402602001604051908101604052809291908181526020018280546108bb906115f9565b80156109085780601f106108dd57610100808354040283529160200191610908565b820191906000526020600020905b8154815290600101906020018083116108eb57829003601f168201915b5050505050905090565b600b8160405161092291906118fd565b908152602001604051809103902060009054906101000a900460ff161561097e576040517f08c379a000000000000000000000000000000000000000000000000000000000815260040161097590611960565b60405180910390fd5b600a819080600181540180825580915050600190039060005260206000200160009091909190915090805190602001906109b992919061104a565b5060006001600a805490506109ce91906119af565b90506109da3382610ce9565b6001600b836040516109ec91906118fd565b908152602001604051809103902060006101000a81548160ff0219169083151502179055505050565b6000610a2082610d0a565b610a5f576040517f08c379a0000000000000000000000000000000000000000000000000000000008152600401610a5690611a2f565b60405180910390fd5b6000610a6a8361066c565b90508073ffffffffffffffffffffffffffffffffffffffff168473ffffffffffffffffffffffffffffffffffffffff161491505092915050565b600073ffffffffffffffffffffffffffffffffffffffff168273ffffffffffffffffffffffffffffffffffffffff1603610b13576040517f08c379a0000000000000000000000000000000000000000000000000000000008152600401610b0a90611ac1565b60405180910390fd5b8273ffffffffffffffffffffffffffffffffffffffff16610b338261066c565b73ffffffffffffffffffffffffffffffffffffffff1614610b89576040517f08c379a0000000000000000000000000000000000000000000000000000000008152600401610b8090611b53565b60405180910390fd5b6001600260008573ffffffffffffffffffffffffffffffffffffffff1673ffffffffffffffffffffffffffffffffffffffff1681526020019081526020016000206000828254610bd991906119af565b925050819055506001600260008473ffffffffffffffffffffffffffffffffffffffff1673ffffffffffffffffffffffffffffffffffffffff1681526020019081526020016000206000828254610c309190611b73565b92505081905550816001600083815260200190815260200160002060006101000a81548173ffffffffffffffffffffffffffffffffffffffff021916908373ffffffffffffffffffffffffffffffffffffffff160217905550808273ffffffffffffffffffffffffffffffffffffffff168473ffffffffffffffffffffffffffffffffffffffff167fddf252ad1be2c89b69c2b068fc378daa952ba7f163c4a11628f55a4df523b3ef60405160405180910390a4505050565b610cf38282610d7c565b610cfc81610f3d565b610d068282610f86565b5050565b6000806001600084815260200190815260200160002060009054906101000a900473ffffffffffffffffffffffffffffffffffffffff169050600073ffffffffffffffffffffffffffffffffffffffff168173ffffffffffffffffffffffffffffffffffffffff161415915050919050565b600073ffffffffffffffffffffffffffffffffffffffff168273ffffffffffffffffffffffffffffffffffffffff1603610deb576040517f08c379a0000000000000000000000000000000000000000000000000000000008152600401610de290611c15565b60405180910390fd5b610df481610d0a565b15610e34576040517f08c379a0000000000000000000000000000000000000000000000000000000008152600401610e2b90611c81565b60405180910390fd5b816001600083815260200190815260200160002060006101000a81548173ffffffffffffffffffffffffffffffffffffffff021916908373ffffffffffffffffffffffffffffffffffffffff1602179055506001600260008473ffffffffffffffffffffffffffffffffffffffff1673ffffffffffffffffffffffffffffffffffffffff1681526020019081526020016000206000828254610ed69190611b73565b92505081905550808273ffffffffffffffffffffffffffffffffffffffff16600073ffffffffffffffffffffffffffffffffffffffff167fddf252ad1be2c89b69c2b068fc378daa952ba7f163c4a11628f55a4df523b3ef60405160405180910390a45050565b6004805490506005600083815260200190815260200160002081905550600481908060018154018082558091505060019003906000526020600020016000909190919091505550565b600660008373ffffffffffffffffffffffffffffffffffffffff1673ffffffffffffffffffffffffffffffffffffffff168152602001908152602001600020819080600181540180825580915050600190039060005260206000200160009091909190915055600660008373ffffffffffffffffffffffffffffffffffffffff1673ffffffffffffffffffffffffffffffffffffffff1681526020019081526020016000208054905060076000838152602001908152602001600020819055505050565b828054611056906115f9565b90600052602060002090601f01602090048101928261107857600085556110bf565b82601f1061109157805160ff19168380011785556110bf565b828001600101855582156110bf579182015b828111156110be5782518255916020019190600101906110a3565b5b5090506110cc91906110d0565b5090565b5b808211156110e95760008160009055506001016110d1565b5090565b6000604051905090565b600080fd5b600080fd5b60007fffffffff0000000000000000000000000000000000000000000000000000000082169050919050565b61113681611101565b811461114157600080fd5b50565b6000813590506111538161112d565b92915050565b60006020828403121561116f5761116e6110f7565b5b600061117d84828501611144565b91505092915050565b60008115159050919050565b61119b81611186565b82525050565b60006020820190506111b66000830184611192565b92915050565b600081519050919050565b600082825260208201905092915050565b60005b838110156111f65780820151818401526020810190506111db565b83811115611205576000848401525b50505050565b6000601f19601f8301169050919050565b6000611227826111bc565b61123181856111c7565b93506112418185602086016111d8565b61124a8161120b565b840191505092915050565b6000602082019050818103600083015261126f818461121c565b905092915050565b600073ffffffffffffffffffffffffffffffffffffffff82169050919050565b60006112a282611277565b9050919050565b6112b281611297565b81146112bd57600080fd5b50565b6000813590506112cf816112a9565b92915050565b6000819050919050565b6112e8816112d5565b81146112f357600080fd5b50565b600081359050611305816112df565b92915050565b60008060408385031215611322576113216110f7565b5b6000611330858286016112c0565b9250506020611341858286016112f6565b9150509250929050565b611354816112d5565b82525050565b600060208201905061136f600083018461134b565b92915050565b60008060006060848603121561138e5761138d6110f7565b5b600061139c868287016112c0565b93505060206113ad868287016112c0565b92505060406113be868287016112f6565b9150509250925092565b6000602082840312156113de576113dd6110f7565b5b60006113ec848285016112f6565b91505092915050565b6113fe81611297565b82525050565b600060208201905061141960008301846113f5565b92915050565b600060208284031215611435576114346110f7565b5b6000611443848285016112c0565b91505092915050565b600080fd5b600080fd5b7f4e487b7100000000000000000000000000000000000000000000000000000000600052604160045260246000fd5b61148e8261120b565b810181811067ffffffffffffffff821117156114ad576114ac611456565b5b80604052505050565b60006114c06110ed565b90506114cc8282611485565b919050565b600067ffffffffffffffff8211156114ec576114eb611456565b5b6114f58261120b565b9050602081019050919050565b82818337600083830152505050565b600061152461151f846114d1565b6114b6565b9050828152602081018484840111156115405761153f611451565b5b61154b848285611502565b509392505050565b600082601f8301126115685761156761144c565b5b8135611578848260208601611511565b91505092915050565b600060208284031215611597576115966110f7565b5b600082013567ffffffffffffffff8111156115b5576115b46110fc565b5b6115c184828501611553565b91505092915050565b7f4e487b7100000000000000000000000000000000000000000000000000000000600052602260045260246000fd5b6000600282049050600182168061161157607f821691505b602082108103611624576116236115ca565b5b50919050565b7f4572726f72202d20617070726f76616c20746f2063757272656e74206f776e6560008201527f7200000000000000000000000000000000000000000000000000000000000000602082015250565b60006116866021836111c7565b91506116918261162a565b604082019050919050565b600060208201905081810360008301526116b581611679565b9050919050565b7f43757272656e742063616c6c6572206973206e6f7420746865206f776e657200600082015250565b60006116f2601f836111c7565b91506116fd826116bc565b602082019050919050565b60006020820190508181036000830152611721816116e5565b9050919050565b7f6f776e657220696e646578206973206f7574206f6620626f756e647321000000600082015250565b600061175e601d836111c7565b915061176982611728565b602082019050919050565b6000602082019050818103600083015261178d81611751565b9050919050565b7f4e487b7100000000000000000000000000000000000000000000000000000000600052603260045260246000fd5b7f676c6f62616c20696e646578206973206f7574206f6620626f756e6473210000600082015250565b60006117f9601e836111c7565b9150611804826117c3565b602082019050919050565b60006020820190508181036000830152611828816117ec565b9050919050565b7f6f776e657220717565727920666f72206e6f6e2d6578697374656e7420746f6b60008201527f656e000000000000000000000000000000000000000000000000000000000000602082015250565b600061188b6022836111c7565b91506118968261182f565b604082019050919050565b600060208201905081810360008301526118ba8161187e565b9050919050565b600081905092915050565b60006118d7826111bc565b6118e181856118c1565b93506118f18185602086016111d8565b80840191505092915050565b600061190982846118cc565b915081905092915050565b7f4572726f72202d206b727970746f4269726420616c7265616479206578697374600082015250565b600061194a6020836111c7565b915061195582611914565b602082019050919050565b600060208201905081810360008301526119798161193d565b9050919050565b7f4e487b7100000000000000000000000000000000000000000000000000000000600052601160045260246000fd5b60006119ba826112d5565b91506119c5836112d5565b9250828210156119d8576119d7611980565b5b828203905092915050565b7f746f6b656e20646f6573206e6f74206578697374000000000000000000000000600082015250565b6000611a196014836111c7565b9150611a24826119e3565b602082019050919050565b60006020820190508181036000830152611a4881611a0c565b9050919050565b7f4572726f72202d20455243373231205472616e7366657220746f20746865207a60008201527f65726f2061646472657373000000000000000000000000000000000000000000602082015250565b6000611aab602b836111c7565b9150611ab682611a4f565b604082019050919050565b60006020820190508181036000830152611ada81611a9e565b9050919050565b7f547279696e6720746f20746f207472616e73666572206120746f6b656e20746860008201527f65206164647265737320646f6573206e6f74206f776e00000000000000000000602082015250565b6000611b3d6036836111c7565b9150611b4882611ae1565b604082019050919050565b60006020820190508181036000830152611b6c81611b30565b9050919050565b6000611b7e826112d5565b9150611b89836112d5565b9250827fffffffffffffffffffffffffffffffffffffffffffffffffffffffffffffffff03821115611bbe57611bbd611980565b5b828201905092915050565b7f4552433732313a206d696e74696e6720746f2074686520302061646472657373600082015250565b6000611bff6020836111c7565b9150611c0a82611bc9565b602082019050919050565b60006020820190508181036000830152611c2e81611bf2565b9050919050565b7f4552433732313a20746f6b656e20616c7265616479206d696e74656400000000600082015250565b6000611c6b601c836111c7565b9150611c7682611c35565b602082019050919050565b60006020820190508181036000830152611c9a81611c5e565b905091905056fea2646970667358221220ceff04c59988a1d27b1a7640e5a59db255c38e1e42360c20b0e6810568a0c25764736f6c634300080d0033",
  "immutableReferences": {},
  "source": "// SPDX-License-Identifier: MIT\r\npragma solidity ^0.8.0;\r\n\r\nimport \"./ERC721Connector.sol\";\r\n\r\ncontract KryptoBird is ERC721Connector {\r\n    // array to store out nfts\r\n    string[] public kryptoBirdz;\r\n\r\n    mapping(string => bool) _kryptoBirdzExists;\r\n\r\n    function mint(string memory _kryptoBird) public {\r\n        require(\r\n            !_kryptoBirdzExists[_kryptoBird],\r\n            \"Error - kryptoBird already exist\"\r\n        );\r\n        // this is deprecated uint _id = KryptoBirdz.push(_kryptoBird);\r\n        kryptoBirdz.push(_kryptoBird);\r\n        uint256 _id = kryptoBirdz.length - 1;\r\n\r\n        //.push no longer retruns legnth but ref the added element\r\n\r\n        _mint(msg.sender, _id);\r\n\r\n        _kryptoBirdzExists[_kryptoBird] = true;\r\n    }\r\n\r\n    constructor() ERC721Connector(\"KryptoBird\", \"KBIRDZ\") {}\r\n}\r\n",
  "sourcePath": "C:\\Users\\Nancy\\hello\\udemy\\nft-marketplace-starter-kit-main\\nft-marketplace-starter-kit-main\\src\\contracts\\KryptoBirdz.sol",
  "compiler": {
    "name": "solc",
    "version": "0.8.13+commit.abaa5c0e.Emscripten.clang"
  },
  "schemaVersion": "3.4.4",
  "updatedAt": "2022-03-25T03:36:55.944Z",
  "networkType": "ethereum",
  "devdoc": {
    "kind": "dev",
    "methods": {
      "supportsInterface(bytes4)": {
        "details": "Interface identification is specified in ERC-165. This function  uses less than 30,000 gas.",
        "params": {
          "interfaceID": "The interface identifier, as specified in ERC-165"
        },
        "returns": {
          "_0": "`true` if the contract implements `interfaceID` and  `interfaceID` is not 0xffffffff, `false` otherwise"
        }
      }
    },
    "version": 1
  },
  "userdoc": {
    "kind": "user",
    "methods": {
      "supportsInterface(bytes4)": {
        "notice": "Query if a contract implements an interface"
      }
    },
    "version": 1
  }
}